:020000040000FA
:100000000A128A11D92F00308A000408840A820754
:0E0010000034483445344C344C344F34003402
:1009A8000734003408341A342C34FA00F801F901F9
:1009B800F02C78087A0784000A128A1103200A1298
:1009C8008A110A128A11BC250A128A110130F80705
:1009D8000318F90A0030F90778087A0784000A1220
:1009E8008A1103200A128A11003A031DFC2CFD2CDF
:1009F800DD2C0800F7000130F400831203132C08E3
:100A08000739013E092D0310F40DFF3E031D072D84
:100A18007408FF3AF5002A08840083172B1C8313F7
:100A28007508800577080A128A110F270A128A1199
:100A38000130F400831203132C0CF500F50C750C2F
:100A48000739013E292D0310F40DFF3E031D272D04
:100A58007408F6002A08840083172B1C8313760871
:100A680080040630F5003030F400F40B392DF50B16
:100A7800392D00000130F400831203132C0CF5000B
:100A8800F50C750C0739013E4B2D0310F40DFF3E94
:100A9800031D492D7408FF3AF6002A0884008317BD
:100AA8002B1C8313760880050800243084008312E9
:100AB80003132F0883138000840A30088000840AF7
:100AC80031088000840A32088000840A33088000D4
:100AD8007830840024088000840A25088000840A6D
:100AE80026088000840A27088000840A28088000D5
:100AF8000A128A1158260A128A1100300A128A111B
:100B0800FE240A128A1101300A128A11FE240A12DE
:100B18008A110C300A128A11FE240A128A11003036
:100B28000A128A11FE240A128A1101300A128A1145
:100B3800D9240A128A1183120313A9010D308312D2
:100B48000313A300FB30A200A20BA82DA30BA82D12
:100B5800013083120313A2002208A9076430290276
:100B6800031CB72DB82DA22D812D0A128A11002839
:100B7800F7000130F400831203132C080739013EF3
:100B8800C72D0310F40DFF3E031DC52D7408F50095
:100B98002A08840083172B1C8313750880047708A0
:100BA800F40004300310F40CFF3E031DD62D740826
:100BB8000F390A128A110F270A128A110130F4001C
:100BC800831203132C0CF500F50C750C0739013E44
:100BD800EF2D0310F40DFF3E031DED2D7408F600F4
:100BE8002A08840083172B1C8313760880040D3091
:100BF800F400F40BFD2D0130F400831203132C0CC8
:100C0800F500F50C750C0739013E0C2E0310F40D98
:100C1800FF3E031D0A2E7408FF3AF6002A088400D6
:100C280083172B1C83137608800577080F390A125F
:100C38008A110F270A128A110130F4008312031354
:100C48002C0CF500F50C750C0739013E2D2E031000
:100C5800F40DFF3E031D2B2E7408F6002A088400AD
:100C680083172B1C8313760880040D30F400F40BD3
:100C78003B2E0130F400831203132C0CF500F50C05
:100C8800750C0739013E4A2E0310F40DFF3E031D73
:100C9800482E7408FF3AF6002A08840083172B1C94
:100CA80083137608800508002A30840078088313A7
:100CB8008000840A79088000840A7A088000840AFF
:100CC8007B088000840A7C088000003083120313AC
:100CD8002B06031D712E05302A06031D742E752E52
:100CE800792E831603138501942E00302B06031DDD
:100CF8007F2E06302A06031D822E832E872E83160A
:100D080003138601942E00302B06031D8D2E073009
:100D18002A06031D902E912E0E2F8316031387018A
:100D28001A3083120313A100F730A000A00B9A2EEB
:100D3800A10B9A2E9F2E03300A128A11FE240A1242
:100D48008A11073083120313A1007C30A000A00B86
:100D5800AB2EA10BAB2E000003300A128A11FE2421
:100D68000A128A11153083120313A100C530A0009E
:100D7800A00BBC2EA10BBC2EC12E03300A128A1167
:100D8800FE240A128A1102300A128A11FE240A125B
:100D98008A1102300A128A11FE240A128A110830B6
:100DA8000A128A11FE240A128A1100300A128A11C4
:100DB800FE240A128A1106300A128A11FE240A1227
:100DC8008A11083083120313A0002008FD007D1546
:100DD8007D08A00004300310A00CFF3E031DEF2E79
:100DE80020080F390A128A11FE240A128A117D0876
:100DF8000F390A128A11FE240A128A1100300A12C7
:100E08008A11FE240A128A1101300A128A11FE245C
:100E18000A128A110800F300731C132F142F2B2FAA
:100E28000130F000831203132D080739013E1E2FED
:100E38000310F00DFF3E031D1C2F7008F1002A0857
:100E4800840083172B1C831371088004422F013000
:100E5800F000831203132D080739013E352F0310C4
:100E6800F00DFF3E031D332F7008FF3AF1002A08EA
:100E7800840083172B1C831371088005F31C452FEE
:100E8800462F5E2F0130F0002D0CF100F10C710C93
:100E98000739013E512F0310F00DFF3E031D4F2F60
:100EA8007008F2002A08840083172B1C8313720829
:100EB8008004762F0130F0002D0CF100F10C710C3C
:100EC8000739013E692F0310F00DFF3E031D672F00
:100ED8007008FF3AF2002A08840083172B1C83133A
:100EE80072088005731D792F7A2F8F2F0130F0003B
:100EF8002E080739013E822F0310F00DFF3E031D17
:100F0800802F7008F1002A08840083172B1C831394
:100F180071088004A42F0130F0002E080739013E23
:100F2800972F0310F00DFF3E031D952F7008FF3A11
:100F3800F1002A08840083172B1C8313710880058D
:100F4800F31DA72FA82FC02F0130F0002E0CF100A1
:100F5800F10C710C0739013EB32F0310F00DFF3E61
:100F6800031DB12F7008F2002A08840083172B1C78
:100F7800831372088004D82F0130F0002E0CF10082
:100F8800F10C710C0739013ECB2F0310F00DFF3E19
:100F9800031DC92F7008FF3AF2002A08840083173E
:100FA8002B1C83137208800508000A128A11D424A6
:100FB8000A128A11AF000A128A11D5240A128A115C
:100FC800B0000A128A11D6240A128A11B1000A1234
:100FD8008A11D7240A128A11B2000A128A11D82457
:100FE8000A128A11B300AA01AB01AC01AD01AE012E
:080FF80083010A128A11592D30
:04400E00F1EFFFFED1
:00000001FF
